{
  "contractName": "MPNFT",
  "abi": [
    {
      "inputs": [
        {
          "internalType": "address",
          "name": "governance_",
          "type": "address"
        },
        {
          "internalType": "address",
          "name": "ibox_exchange",
          "type": "address"
        }
      ],
      "stateMutability": "nonpayable",
      "type": "constructor"
    },
    {
      "anonymous": false,
      "inputs": [
        {
          "indexed": false,
          "internalType": "uint256[]",
          "name": "assetId",
          "type": "uint256[]"
        },
        {
          "indexed": false,
          "internalType": "string[]",
          "name": "uris",
          "type": "string[]"
        },
        {
          "indexed": false,
          "internalType": "uint256[]",
          "name": "ids",
          "type": "uint256[]"
        },
        {
          "indexed": false,
          "internalType": "uint256",
          "name": "requestId",
          "type": "uint256"
        }
      ],
      "name": "AddTokensEvent",
      "type": "event"
    },
    {
      "anonymous": false,
      "inputs": [
        {
          "indexed": true,
          "internalType": "address",
          "name": "account",
          "type": "address"
        },
        {
          "indexed": true,
          "internalType": "address",
          "name": "operator",
          "type": "address"
        },
        {
          "indexed": false,
          "internalType": "bool",
          "name": "approved",
          "type": "bool"
        }
      ],
      "name": "ApprovalForAll",
      "type": "event"
    },
    {
      "anonymous": false,
      "inputs": [
        {
          "indexed": false,
          "internalType": "uint256",
          "name": "requestId",
          "type": "uint256"
        },
        {
          "indexed": false,
          "internalType": "address",
          "name": "user",
          "type": "address"
        },
        {
          "indexed": false,
          "internalType": "uint256",
          "name": "assetId",
          "type": "uint256"
        }
      ],
      "name": "DeleteNFTEvent",
      "type": "event"
    },
    {
      "anonymous": false,
      "inputs": [
        {
          "indexed": true,
          "internalType": "address",
          "name": "operator",
          "type": "address"
        },
        {
          "indexed": true,
          "internalType": "address",
          "name": "from",
          "type": "address"
        },
        {
          "indexed": true,
          "internalType": "address",
          "name": "to",
          "type": "address"
        },
        {
          "indexed": false,
          "internalType": "uint256[]",
          "name": "ids",
          "type": "uint256[]"
        },
        {
          "indexed": false,
          "internalType": "uint256[]",
          "name": "values",
          "type": "uint256[]"
        }
      ],
      "name": "TransferBatch",
      "type": "event"
    },
    {
      "anonymous": false,
      "inputs": [
        {
          "indexed": true,
          "internalType": "address",
          "name": "operator",
          "type": "address"
        },
        {
          "indexed": true,
          "internalType": "address",
          "name": "from",
          "type": "address"
        },
        {
          "indexed": true,
          "internalType": "address",
          "name": "to",
          "type": "address"
        },
        {
          "indexed": false,
          "internalType": "uint256",
          "name": "id",
          "type": "uint256"
        },
        {
          "indexed": false,
          "internalType": "uint256",
          "name": "value",
          "type": "uint256"
        }
      ],
      "name": "TransferSingle",
      "type": "event"
    },
    {
      "anonymous": false,
      "inputs": [
        {
          "indexed": false,
          "internalType": "string",
          "name": "value",
          "type": "string"
        },
        {
          "indexed": true,
          "internalType": "uint256",
          "name": "id",
          "type": "uint256"
        }
      ],
      "name": "URI",
      "type": "event"
    },
    {
      "inputs": [
        {
          "internalType": "address",
          "name": "account",
          "type": "address"
        },
        {
          "internalType": "uint256",
          "name": "id",
          "type": "uint256"
        }
      ],
      "name": "balanceOf",
      "outputs": [
        {
          "internalType": "uint256",
          "name": "",
          "type": "uint256"
        }
      ],
      "stateMutability": "view",
      "type": "function",
      "constant": true
    },
    {
      "inputs": [
        {
          "internalType": "address[]",
          "name": "accounts",
          "type": "address[]"
        },
        {
          "internalType": "uint256[]",
          "name": "ids",
          "type": "uint256[]"
        }
      ],
      "name": "balanceOfBatch",
      "outputs": [
        {
          "internalType": "uint256[]",
          "name": "",
          "type": "uint256[]"
        }
      ],
      "stateMutability": "view",
      "type": "function",
      "constant": true
    },
    {
      "inputs": [
        {
          "internalType": "address",
          "name": "account",
          "type": "address"
        },
        {
          "internalType": "address",
          "name": "operator",
          "type": "address"
        }
      ],
      "name": "isApprovedForAll",
      "outputs": [
        {
          "internalType": "bool",
          "name": "",
          "type": "bool"
        }
      ],
      "stateMutability": "view",
      "type": "function",
      "constant": true
    },
    {
      "inputs": [
        {
          "internalType": "address",
          "name": "operator",
          "type": "address"
        },
        {
          "internalType": "bool",
          "name": "approved",
          "type": "bool"
        }
      ],
      "name": "setApprovalForAll",
      "outputs": [],
      "stateMutability": "nonpayable",
      "type": "function"
    },
    {
      "inputs": [
        {
          "internalType": "bytes4",
          "name": "interfaceId",
          "type": "bytes4"
        }
      ],
      "name": "supportsInterface",
      "outputs": [
        {
          "internalType": "bool",
          "name": "",
          "type": "bool"
        }
      ],
      "stateMutability": "view",
      "type": "function",
      "constant": true
    },
    {
      "inputs": [
        {
          "internalType": "address",
          "name": "ibox_exchange",
          "type": "address"
        }
      ],
      "name": "setIboxExchange",
      "outputs": [],
      "stateMutability": "nonpayable",
      "type": "function"
    },
    {
      "inputs": [],
      "name": "getIboxExchange",
      "outputs": [
        {
          "internalType": "address",
          "name": "",
          "type": "address"
        }
      ],
      "stateMutability": "view",
      "type": "function",
      "constant": true
    },
    {
      "inputs": [
        {
          "internalType": "uint256",
          "name": "amount",
          "type": "uint256"
        },
        {
          "internalType": "string",
          "name": "uri",
          "type": "string"
        }
      ],
      "name": "createTokenForIboxExchange",
      "outputs": [
        {
          "internalType": "uint256",
          "name": "",
          "type": "uint256"
        }
      ],
      "stateMutability": "nonpayable",
      "type": "function"
    },
    {
      "inputs": [
        {
          "internalType": "uint256",
          "name": "requestId",
          "type": "uint256"
        },
        {
          "internalType": "address",
          "name": "user",
          "type": "address"
        },
        {
          "internalType": "uint256",
          "name": "assetId",
          "type": "uint256"
        },
        {
          "internalType": "uint256",
          "name": "amount",
          "type": "uint256"
        }
      ],
      "name": "burnToken",
      "outputs": [],
      "stateMutability": "nonpayable",
      "type": "function"
    },
    {
      "inputs": [
        {
          "internalType": "uint256[]",
          "name": "copies",
          "type": "uint256[]"
        },
        {
          "internalType": "uint256[]",
          "name": "souceIds",
          "type": "uint256[]"
        },
        {
          "internalType": "string[]",
          "name": "uri_",
          "type": "string[]"
        },
        {
          "internalType": "uint256",
          "name": "requestId_",
          "type": "uint256"
        },
        {
          "internalType": "address",
          "name": "user",
          "type": "address"
        }
      ],
      "name": "addTokens",
      "outputs": [],
      "stateMutability": "nonpayable",
      "type": "function"
    },
    {
      "inputs": [
        {
          "internalType": "uint256",
          "name": "tokenId_",
          "type": "uint256"
        }
      ],
      "name": "uri",
      "outputs": [
        {
          "internalType": "string",
          "name": "",
          "type": "string"
        }
      ],
      "stateMutability": "view",
      "type": "function",
      "constant": true
    },
    {
      "inputs": [],
      "name": "getTokenCount",
      "outputs": [
        {
          "internalType": "uint256",
          "name": "",
          "type": "uint256"
        }
      ],
      "stateMutability": "view",
      "type": "function",
      "constant": true
    },
    {
      "inputs": [
        {
          "internalType": "address",
          "name": "user",
          "type": "address"
        }
      ],
      "name": "getUserAssetIds",
      "outputs": [
        {
          "internalType": "uint256[]",
          "name": "",
          "type": "uint256[]"
        }
      ],
      "stateMutability": "view",
      "type": "function",
      "constant": true
    },
    {
      "inputs": [
        {
          "internalType": "address",
          "name": "from",
          "type": "address"
        },
        {
          "internalType": "address",
          "name": "to",
          "type": "address"
        },
        {
          "internalType": "uint256",
          "name": "id",
          "type": "uint256"
        },
        {
          "internalType": "uint256",
          "name": "amount",
          "type": "uint256"
        },
        {
          "internalType": "bytes",
          "name": "data",
          "type": "bytes"
        }
      ],
      "name": "safeTransferFrom",
      "outputs": [],
      "stateMutability": "nonpayable",
      "type": "function"
    },
    {
      "inputs": [
        {
          "internalType": "address",
          "name": "from",
          "type": "address"
        },
        {
          "internalType": "address",
          "name": "to",
          "type": "address"
        },
        {
          "internalType": "uint256[]",
          "name": "ids",
          "type": "uint256[]"
        },
        {
          "internalType": "uint256[]",
          "name": "amounts",
          "type": "uint256[]"
        },
        {
          "internalType": "bytes",
          "name": "data",
          "type": "bytes"
        }
      ],
      "name": "safeBatchTransferFrom",
      "outputs": [],
      "stateMutability": "nonpayable",
      "type": "function"
    },
    {
      "inputs": [
        {
          "internalType": "address",
          "name": "operator",
          "type": "address"
        },
        {
          "internalType": "address",
          "name": "from",
          "type": "address"
        },
        {
          "internalType": "uint256",
          "name": "id",
          "type": "uint256"
        },
        {
          "internalType": "uint256",
          "name": "value",
          "type": "uint256"
        },
        {
          "internalType": "bytes",
          "name": "data",
          "type": "bytes"
        }
      ],
      "name": "onERC1155Received",
      "outputs": [
        {
          "internalType": "bytes4",
          "name": "",
          "type": "bytes4"
        }
      ],
      "stateMutability": "nonpayable",
      "type": "function"
    },
    {
      "inputs": [
        {
          "internalType": "address",
          "name": "operator",
          "type": "address"
        },
        {
          "internalType": "address",
          "name": "from",
          "type": "address"
        },
        {
          "internalType": "uint256[]",
          "name": "ids",
          "type": "uint256[]"
        },
        {
          "internalType": "uint256[]",
          "name": "values",
          "type": "uint256[]"
        },
        {
          "internalType": "bytes",
          "name": "data",
          "type": "bytes"
        }
      ],
      "name": "onERC1155BatchReceived",
      "outputs": [
        {
          "internalType": "bytes4",
          "name": "",
          "type": "bytes4"
        }
      ],
      "stateMutability": "nonpayable",
      "type": "function"
    }
  ],
  "bytecode": "0x60806040523480156200001157600080fd5b50604051620040be380380620040be8339818101604052810190620000379190620001d9565b6040518060600160405280602281526020016200409c602291396200006281620000f660201b60201c565b5081600360006101000a81548173ffffffffffffffffffffffffffffffffffffffff021916908373ffffffffffffffffffffffffffffffffffffffff16021790555080600460006101000a81548173ffffffffffffffffffffffffffffffffffffffff021916908373ffffffffffffffffffffffffffffffffffffffff1602179055506127106005819055505050620002cd565b80600290805190602001906200010e92919062000112565b5050565b82805462000120906200024e565b90600052602060002090601f01602090048101928262000144576000855562000190565b82601f106200015f57805160ff191683800117855562000190565b8280016001018555821562000190579182015b828111156200018f57825182559160200191906001019062000172565b5b5090506200019f9190620001a3565b5090565b5b80821115620001be576000816000905550600101620001a4565b5090565b600081519050620001d381620002b3565b92915050565b60008060408385031215620001ed57600080fd5b6000620001fd85828601620001c2565b92505060206200021085828601620001c2565b9150509250929050565b600062000227826200022e565b9050919050565b600073ffffffffffffffffffffffffffffffffffffffff82169050919050565b600060028204905060018216806200026757607f821691505b602082108114156200027e576200027d62000284565b5b50919050565b7f4e487b7100000000000000000000000000000000000000000000000000000000600052602260045260246000fd5b620002be816200021a565b8114620002ca57600080fd5b50565b613dbf80620002dd6000396000f3fe608060405234801561001057600080fd5b506004361061010a5760003560e01c80634e883ac7116100a2578063bc197c8111610071578063bc197c81146102d9578063e985e9c514610309578063f23a6e6114610339578063f242432a14610369578063fcb963e2146103855761010a565b80634e883ac71461025357806378a8956714610283578063a0bd33d6146102a1578063a22cb465146102bd5761010a565b80632a0727d0116100de5780632a0727d0146101bb5780632eb2c2d6146101d7578063309f575a146101f35780634e1273f4146102235761010a565b8062fdd58e1461010f57806301ffc9a71461013f5780630e89341c1461016f5780631c35347e1461019f575b600080fd5b61012960048036038101906101249190612976565b6103a3565b60405161013691906137c6565b60405180910390f35b61015960048036038101906101549190612add565b61046c565b604051610166919061358e565b60405180910390f35b61018960048036038101906101849190612b2f565b61054e565b60405161019691906135c4565b60405180910390f35b6101b960048036038101906101b49190612b58565b6105f3565b005b6101d560048036038101906101d09190612a1e565b6106cf565b005b6101f160048036038101906101ec919061275a565b610970565b005b61020d60048036038101906102089190612bbb565b6109f4565b60405161021a91906137c6565b60405180910390f35b61023d600480360381019061023891906129b2565b610b40565b60405161024a91906134db565b60405180910390f35b61026d60048036038101906102689190612629565b610cf1565b60405161027a91906134db565b60405180910390f35b61028b610d8b565b60405161029891906137c6565b60405180910390f35b6102bb60048036038101906102b69190612629565b610d95565b005b6102d760048036038101906102d2919061293a565b610e69565b005b6102f360048036038101906102ee919061268e565b610fea565b60405161030091906135a9565b60405180910390f35b610323600480360381019061031e9190612652565b61101b565b604051610330919061358e565b60405180910390f35b610353600480360381019061034e9190612819565b6110af565b60405161036091906135a9565b60405180910390f35b610383600480360381019061037e91906128ab565b6110de565b005b61038d6110fc565b60405161039a91906133fe565b60405180910390f35b60008073ffffffffffffffffffffffffffffffffffffffff168373ffffffffffffffffffffffffffffffffffffffff161415610414576040517f08c379a000000000000000000000000000000000000000000000000000000000815260040161040b90613626565b60405180910390fd5b60008083815260200190815260200160002060008473ffffffffffffffffffffffffffffffffffffffff1673ffffffffffffffffffffffffffffffffffffffff16815260200190815260200160002054905092915050565b60007fd9b67a26000000000000000000000000000000000000000000000000000000007bffffffffffffffffffffffffffffffffffffffffffffffffffffffff1916827bffffffffffffffffffffffffffffffffffffffffffffffffffffffff1916148061053757507f0e89341c000000000000000000000000000000000000000000000000000000007bffffffffffffffffffffffffffffffffffffffffffffffffffffffff1916827bffffffffffffffffffffffffffffffffffffffffffffffffffffffff1916145b80610547575061054682611126565b5b9050919050565b606060066000838152602001908152602001600020805461056e90613b51565b80601f016020809104026020016040519081016040528092919081815260200182805461059a90613b51565b80156105e75780601f106105bc576101008083540402835291602001916105e7565b820191906000526020600020905b8154815290600101906020018083116105ca57829003601f168201915b50505050509050919050565b600360009054906101000a900473ffffffffffffffffffffffffffffffffffffffff1673ffffffffffffffffffffffffffffffffffffffff163373ffffffffffffffffffffffffffffffffffffffff1614610683576040517f08c379a000000000000000000000000000000000000000000000000000000000815260040161067a90613686565b60405180910390fd5b61068e838383611190565b7fa31d9264b55f2568500d9620228b642ed3bb5f4904ac697acbaab5ed7fa3385c8484846040516106c1939291906137e1565b60405180910390a150505050565b600360009054906101000a900473ffffffffffffffffffffffffffffffffffffffff1673ffffffffffffffffffffffffffffffffffffffff163373ffffffffffffffffffffffffffffffffffffffff161461075f576040517f08c379a000000000000000000000000000000000000000000000000000000000815260040161075690613686565b60405180910390fd5b60008551905060008167ffffffffffffffff8111156107a7577f4e487b7100000000000000000000000000000000000000000000000000000000600052604160045260246000fd5b6040519080825280602002602001820160405280156107d55781602001602082028036833780820191505090505b50905060005b8281101561092957600560008154809291906107f690613b83565b9190505550600554828281518110610837577f4e487b7100000000000000000000000000000000000000000000000000000000600052603260045260246000fd5b6020026020010181815250506108a0846005548a8481518110610883577f4e487b7100000000000000000000000000000000000000000000000000000000600052603260045260246000fd5b6020026020010151604051806020016040528060008152506113b6565b8581815181106108d9577f4e487b7100000000000000000000000000000000000000000000000000000000600052603260045260246000fd5b60200260200101516006600060055481526020019081526020016000209080519060200190610909929190612206565b506109168460055461154c565b808061092190613b83565b9150506107db565b507f931136016b2b79fec39610c08a62f35d4ac48f72fee36a6d0e73f1bbfd6dc1db8186888760405161095f94939291906134fd565b60405180910390a150505050505050565b61097d858585858561166f565b60008351905060005b818110156109eb576109d8868683815181106109cb577f4e487b7100000000000000000000000000000000000000000000000000000000600052603260045260246000fd5b602002602001015161154c565b80806109e390613b83565b915050610986565b50505050505050565b6000600460009054906101000a900473ffffffffffffffffffffffffffffffffffffffff1673ffffffffffffffffffffffffffffffffffffffff163373ffffffffffffffffffffffffffffffffffffffff1614610a86576040517f08c379a0000000000000000000000000000000000000000000000000000000008152600401610a7d90613726565b60405180910390fd5b60056000815480929190610a9990613b83565b9190505550610add600360009054906101000a900473ffffffffffffffffffffffffffffffffffffffff1660055485604051806020016040528060008152506113b6565b816006600060055481526020019081526020016000209080519060200190610b06929190612206565b50610b35600360009054906101000a900473ffffffffffffffffffffffffffffffffffffffff1660055461154c565b600554905092915050565b60608151835114610b86576040517f08c379a0000000000000000000000000000000000000000000000000000000008152600401610b7d90613766565b60405180910390fd5b6000835167ffffffffffffffff811115610bc9577f4e487b7100000000000000000000000000000000000000000000000000000000600052604160045260246000fd5b604051908082528060200260200182016040528015610bf75781602001602082028036833780820191505090505b50905060005b8451811015610ce657610c90858281518110610c42577f4e487b7100000000000000000000000000000000000000000000000000000000600052603260045260246000fd5b6020026020010151858381518110610c83577f4e487b7100000000000000000000000000000000000000000000000000000000600052603260045260246000fd5b60200260200101516103a3565b828281518110610cc9577f4e487b7100000000000000000000000000000000000000000000000000000000600052603260045260246000fd5b60200260200101818152505080610cdf90613b83565b9050610bfd565b508091505092915050565b6060600760008373ffffffffffffffffffffffffffffffffffffffff1673ffffffffffffffffffffffffffffffffffffffff168152602001908152602001600020600101805480602002602001604051908101604052809291908181526020018280548015610d7f57602002820191906000526020600020905b815481526020019060010190808311610d6b575b50505050509050919050565b6000600554905090565b600360009054906101000a900473ffffffffffffffffffffffffffffffffffffffff1673ffffffffffffffffffffffffffffffffffffffff163373ffffffffffffffffffffffffffffffffffffffff1614610e25576040517f08c379a0000000000000000000000000000000000000000000000000000000008152600401610e1c90613686565b60405180910390fd5b80600460006101000a81548173ffffffffffffffffffffffffffffffffffffffff021916908373ffffffffffffffffffffffffffffffffffffffff16021790555050565b8173ffffffffffffffffffffffffffffffffffffffff16610e88611a65565b73ffffffffffffffffffffffffffffffffffffffff161415610edf576040517f08c379a0000000000000000000000000000000000000000000000000000000008152600401610ed690613746565b60405180910390fd5b8060016000610eec611a65565b73ffffffffffffffffffffffffffffffffffffffff1673ffffffffffffffffffffffffffffffffffffffff16815260200190815260200160002060008473ffffffffffffffffffffffffffffffffffffffff1673ffffffffffffffffffffffffffffffffffffffff16815260200190815260200160002060006101000a81548160ff0219169083151502179055508173ffffffffffffffffffffffffffffffffffffffff16610f99611a65565b73ffffffffffffffffffffffffffffffffffffffff167f17307eab39ab6107e8899845ad3d59bd9653f200f220920489ca2b5937696c3183604051610fde919061358e565b60405180910390a35050565b60007fbc197c819b3e337a6f9652dd10becd7eef83032af3b9d958d3d42f6694146621905098975050505050505050565b6000600160008473ffffffffffffffffffffffffffffffffffffffff1673ffffffffffffffffffffffffffffffffffffffff16815260200190815260200160002060008373ffffffffffffffffffffffffffffffffffffffff1673ffffffffffffffffffffffffffffffffffffffff16815260200190815260200160002060009054906101000a900460ff16905092915050565b60007ff23a6e612e1ff4830e658fe43f4e3cb4a5f8170bd5d9e69fb5d7a7fa9e4fdf9790509695505050505050565b6110eb8585858585611a6d565b6110f5848461154c565b5050505050565b6000600460009054906101000a900473ffffffffffffffffffffffffffffffffffffffff16905090565b60007f01ffc9a7000000000000000000000000000000000000000000000000000000007bffffffffffffffffffffffffffffffffffffffffffffffffffffffff1916827bffffffffffffffffffffffffffffffffffffffffffffffffffffffff1916149050919050565b600073ffffffffffffffffffffffffffffffffffffffff168373ffffffffffffffffffffffffffffffffffffffff161415611200576040517f08c379a00000000000000000000000000000000000000000000000000000000081526004016111f7906136e6565b60405180910390fd5b600061120a611a65565b905061123a8185600061121c87611d85565b61122587611d85565b60405180602001604052806000815250611e4b565b600080600085815260200190815260200160002060008673ffffffffffffffffffffffffffffffffffffffff1673ffffffffffffffffffffffffffffffffffffffff168152602001908152602001600020549050828110156112d1576040517f08c379a00000000000000000000000000000000000000000000000000000000081526004016112c890613646565b60405180910390fd5b82816112dd9190613a67565b60008086815260200190815260200160002060008773ffffffffffffffffffffffffffffffffffffffff1673ffffffffffffffffffffffffffffffffffffffff16815260200190815260200160002081905550600073ffffffffffffffffffffffffffffffffffffffff168573ffffffffffffffffffffffffffffffffffffffff168373ffffffffffffffffffffffffffffffffffffffff167fc3d58168c5ae7397731d063d5bbf3d657854427343f4c083240f7aacaa2d0f6287876040516113a7929190613818565b60405180910390a45050505050565b600073ffffffffffffffffffffffffffffffffffffffff168473ffffffffffffffffffffffffffffffffffffffff161415611426576040517f08c379a000000000000000000000000000000000000000000000000000000000815260040161141d906137a6565b60405180910390fd5b6000611430611a65565b90506114518160008761144288611d85565b61144b88611d85565b87611e4b565b8260008086815260200190815260200160002060008773ffffffffffffffffffffffffffffffffffffffff1673ffffffffffffffffffffffffffffffffffffffff16815260200190815260200160002060008282546114b09190613a11565b925050819055508473ffffffffffffffffffffffffffffffffffffffff16600073ffffffffffffffffffffffffffffffffffffffff168273ffffffffffffffffffffffffffffffffffffffff167fc3d58168c5ae7397731d063d5bbf3d657854427343f4c083240f7aacaa2d0f62878760405161152e929190613818565b60405180910390a461154581600087878787611e53565b5050505050565b6000600760008473ffffffffffffffffffffffffffffffffffffffff1673ffffffffffffffffffffffffffffffffffffffff168152602001908152602001600020600001600083815260200190815260200160002054141561166b576001600760008473ffffffffffffffffffffffffffffffffffffffff1673ffffffffffffffffffffffffffffffffffffffff168152602001908152602001600020600001600083815260200190815260200160002081905550600760008373ffffffffffffffffffffffffffffffffffffffff1673ffffffffffffffffffffffffffffffffffffffff1681526020019081526020016000206001018190806001815401808255809150506001900390600052602060002001600090919091909150555b5050565b81518351146116b3576040517f08c379a00000000000000000000000000000000000000000000000000000000081526004016116aa90613786565b60405180910390fd5b600073ffffffffffffffffffffffffffffffffffffffff168473ffffffffffffffffffffffffffffffffffffffff161415611723576040517f08c379a000000000000000000000000000000000000000000000000000000000815260040161171a906136a6565b60405180910390fd5b61172b611a65565b73ffffffffffffffffffffffffffffffffffffffff168573ffffffffffffffffffffffffffffffffffffffff16148061177157506117708561176b611a65565b61101b565b5b6117b0576040517f08c379a00000000000000000000000000000000000000000000000000000000081526004016117a7906136c6565b60405180910390fd5b60006117ba611a65565b90506117ca818787878787611e4b565b60005b84518110156119d0576000858281518110611811577f4e487b7100000000000000000000000000000000000000000000000000000000600052603260045260246000fd5b602002602001015190506000858381518110611856577f4e487b7100000000000000000000000000000000000000000000000000000000600052603260045260246000fd5b60200260200101519050600080600084815260200190815260200160002060008b73ffffffffffffffffffffffffffffffffffffffff1673ffffffffffffffffffffffffffffffffffffffff168152602001908152602001600020549050818110156118f7576040517f08c379a00000000000000000000000000000000000000000000000000000000081526004016118ee90613706565b60405180910390fd5b81816119039190613a67565b60008085815260200190815260200160002060008c73ffffffffffffffffffffffffffffffffffffffff1673ffffffffffffffffffffffffffffffffffffffff168152602001908152602001600020819055508160008085815260200190815260200160002060008b73ffffffffffffffffffffffffffffffffffffffff1673ffffffffffffffffffffffffffffffffffffffff16815260200190815260200160002060008282546119b59190613a11565b92505081905550505050806119c990613b83565b90506117cd565b508473ffffffffffffffffffffffffffffffffffffffff168673ffffffffffffffffffffffffffffffffffffffff168273ffffffffffffffffffffffffffffffffffffffff167f4a39dc06d4c0dbc64b70af90fd698a233a518aa5d07e595d983b8c0526c8f7fb8787604051611a47929190613557565b60405180910390a4611a5d818787878787612023565b505050505050565b600033905090565b600073ffffffffffffffffffffffffffffffffffffffff168473ffffffffffffffffffffffffffffffffffffffff161415611add576040517f08c379a0000000000000000000000000000000000000000000000000000000008152600401611ad4906136a6565b60405180910390fd5b611ae5611a65565b73ffffffffffffffffffffffffffffffffffffffff168573ffffffffffffffffffffffffffffffffffffffff161480611b2b5750611b2a85611b25611a65565b61101b565b5b611b6a576040517f08c379a0000000000000000000000000000000000000000000000000000000008152600401611b6190613666565b60405180910390fd5b6000611b74611a65565b9050611b94818787611b8588611d85565b611b8e88611d85565b87611e4b565b600080600086815260200190815260200160002060008873ffffffffffffffffffffffffffffffffffffffff1673ffffffffffffffffffffffffffffffffffffffff16815260200190815260200160002054905083811015611c2b576040517f08c379a0000000000000000000000000000000000000000000000000000000008152600401611c2290613706565b60405180910390fd5b8381611c379190613a67565b60008087815260200190815260200160002060008973ffffffffffffffffffffffffffffffffffffffff1673ffffffffffffffffffffffffffffffffffffffff168152602001908152602001600020819055508360008087815260200190815260200160002060008873ffffffffffffffffffffffffffffffffffffffff1673ffffffffffffffffffffffffffffffffffffffff1681526020019081526020016000206000828254611ce99190613a11565b925050819055508573ffffffffffffffffffffffffffffffffffffffff168773ffffffffffffffffffffffffffffffffffffffff168373ffffffffffffffffffffffffffffffffffffffff167fc3d58168c5ae7397731d063d5bbf3d657854427343f4c083240f7aacaa2d0f628888604051611d66929190613818565b60405180910390a4611d7c828888888888611e53565b50505050505050565b60606000600167ffffffffffffffff811115611dca577f4e487b7100000000000000000000000000000000000000000000000000000000600052604160045260246000fd5b604051908082528060200260200182016040528015611df85781602001602082028036833780820191505090505b5090508281600081518110611e36577f4e487b7100000000000000000000000000000000000000000000000000000000600052603260045260246000fd5b60200260200101818152505080915050919050565b505050505050565b611e728473ffffffffffffffffffffffffffffffffffffffff166121f3565b1561201b578373ffffffffffffffffffffffffffffffffffffffff1663f23a6e6187878686866040518663ffffffff1660e01b8152600401611eb8959493929190613481565b602060405180830381600087803b158015611ed257600080fd5b505af1925050508015611f0357506040513d601f19601f82011682018060405250810190611f009190612b06565b60015b611f9257611f0f613c77565b80611f1a5750611f57565b806040517f08c379a0000000000000000000000000000000000000000000000000000000008152600401611f4e91906135c4565b60405180910390fd5b6040517f08c379a0000000000000000000000000000000000000000000000000000000008152600401611f89906135e6565b60405180910390fd5b63f23a6e6160e01b7bffffffffffffffffffffffffffffffffffffffffffffffffffffffff1916817bffffffffffffffffffffffffffffffffffffffffffffffffffffffff191614612019576040517f08c379a000000000000000000000000000000000000000000000000000000000815260040161201090613606565b60405180910390fd5b505b505050505050565b6120428473ffffffffffffffffffffffffffffffffffffffff166121f3565b156121eb578373ffffffffffffffffffffffffffffffffffffffff1663bc197c8187878686866040518663ffffffff1660e01b8152600401612088959493929190613419565b602060405180830381600087803b1580156120a257600080fd5b505af19250505080156120d357506040513d601f19601f820116820180604052508101906120d09190612b06565b60015b612162576120df613c77565b806120ea5750612127565b806040517f08c379a000000000000000000000000000000000000000000000000000000000815260040161211e91906135c4565b60405180910390fd5b6040517f08c379a0000000000000000000000000000000000000000000000000000000008152600401612159906135e6565b60405180910390fd5b63bc197c8160e01b7bffffffffffffffffffffffffffffffffffffffffffffffffffffffff1916817bffffffffffffffffffffffffffffffffffffffffffffffffffffffff1916146121e9576040517f08c379a00000000000000000000000000000000000000000000000000000000081526004016121e090613606565b60405180910390fd5b505b505050505050565b600080823b905060008111915050919050565b82805461221290613b51565b90600052602060002090601f016020900481019282612234576000855561227b565b82601f1061224d57805160ff191683800117855561227b565b8280016001018555821561227b579182015b8281111561227a57825182559160200191906001019061225f565b5b509050612288919061228c565b5090565b5b808211156122a557600081600090555060010161228d565b5090565b60006122bc6122b784613872565b613841565b905080838252602082019050828560208602820111156122db57600080fd5b60005b8581101561230b57816122f1888261245a565b8452602084019350602083019250506001810190506122de565b5050509392505050565b60006123286123238461389e565b613841565b9050808382526020820190508260005b85811015612368578135850161234e88826125ea565b845260208401935060208301925050600181019050612338565b5050509392505050565b6000612385612380846138ca565b613841565b905080838252602082019050828560208602820111156123a457600080fd5b60005b858110156123d457816123ba8882612614565b8452602084019350602083019250506001810190506123a7565b5050509392505050565b60006123f16123ec846138f6565b613841565b90508281526020810184848401111561240957600080fd5b612414848285613b0f565b509392505050565b600061242f61242a84613926565b613841565b90508281526020810184848401111561244757600080fd5b612452848285613b0f565b509392505050565b60008135905061246981613d2d565b92915050565b600082601f83011261248057600080fd5b81356124908482602086016122a9565b91505092915050565b600082601f8301126124aa57600080fd5b81356124ba848260208601612315565b91505092915050565b60008083601f8401126124d557600080fd5b8235905067ffffffffffffffff8111156124ee57600080fd5b60208301915083602082028301111561250657600080fd5b9250929050565b600082601f83011261251e57600080fd5b813561252e848260208601612372565b91505092915050565b60008135905061254681613d44565b92915050565b60008135905061255b81613d5b565b92915050565b60008151905061257081613d5b565b92915050565b60008083601f84011261258857600080fd5b8235905067ffffffffffffffff8111156125a157600080fd5b6020830191508360018202830111156125b957600080fd5b9250929050565b600082601f8301126125d157600080fd5b81356125e18482602086016123de565b91505092915050565b600082601f8301126125fb57600080fd5b813561260b84826020860161241c565b91505092915050565b60008135905061262381613d72565b92915050565b60006020828403121561263b57600080fd5b60006126498482850161245a565b91505092915050565b6000806040838503121561266557600080fd5b60006126738582860161245a565b92505060206126848582860161245a565b9150509250929050565b60008060008060008060008060a0898b0312156126aa57600080fd5b60006126b88b828c0161245a565b98505060206126c98b828c0161245a565b975050604089013567ffffffffffffffff8111156126e657600080fd5b6126f28b828c016124c3565b9650965050606089013567ffffffffffffffff81111561271157600080fd5b61271d8b828c016124c3565b9450945050608089013567ffffffffffffffff81111561273c57600080fd5b6127488b828c01612576565b92509250509295985092959890939650565b600080600080600060a0868803121561277257600080fd5b60006127808882890161245a565b95505060206127918882890161245a565b945050604086013567ffffffffffffffff8111156127ae57600080fd5b6127ba8882890161250d565b935050606086013567ffffffffffffffff8111156127d757600080fd5b6127e38882890161250d565b925050608086013567ffffffffffffffff81111561280057600080fd5b61280c888289016125c0565b9150509295509295909350565b60008060008060008060a0878903121561283257600080fd5b600061284089828a0161245a565b965050602061285189828a0161245a565b955050604061286289828a01612614565b945050606061287389828a01612614565b935050608087013567ffffffffffffffff81111561289057600080fd5b61289c89828a01612576565b92509250509295509295509295565b600080600080600060a086880312156128c357600080fd5b60006128d18882890161245a565b95505060206128e28882890161245a565b94505060406128f388828901612614565b935050606061290488828901612614565b925050608086013567ffffffffffffffff81111561292157600080fd5b61292d888289016125c0565b9150509295509295909350565b6000806040838503121561294d57600080fd5b600061295b8582860161245a565b925050602061296c85828601612537565b9150509250929050565b6000806040838503121561298957600080fd5b60006129978582860161245a565b92505060206129a885828601612614565b9150509250929050565b600080604083850312156129c557600080fd5b600083013567ffffffffffffffff8111156129df57600080fd5b6129eb8582860161246f565b925050602083013567ffffffffffffffff811115612a0857600080fd5b612a148582860161250d565b9150509250929050565b600080600080600060a08688031215612a3657600080fd5b600086013567ffffffffffffffff811115612a5057600080fd5b612a5c8882890161250d565b955050602086013567ffffffffffffffff811115612a7957600080fd5b612a858882890161250d565b945050604086013567ffffffffffffffff811115612aa257600080fd5b612aae88828901612499565b9350506060612abf88828901612614565b9250506080612ad08882890161245a565b9150509295509295909350565b600060208284031215612aef57600080fd5b6000612afd8482850161254c565b91505092915050565b600060208284031215612b1857600080fd5b6000612b2684828501612561565b91505092915050565b600060208284031215612b4157600080fd5b6000612b4f84828501612614565b91505092915050565b60008060008060808587031215612b6e57600080fd5b6000612b7c87828801612614565b9450506020612b8d8782880161245a565b9350506040612b9e87828801612614565b9250506060612baf87828801612614565b91505092959194509250565b60008060408385031215612bce57600080fd5b6000612bdc85828601612614565b925050602083013567ffffffffffffffff811115612bf957600080fd5b612c05858286016125ea565b9150509250929050565b6000612c1b8383612d74565b905092915050565b6000612c2f83836133e0565b60208301905092915050565b612c4481613a9b565b82525050565b6000612c5582613976565b612c5f81856139bc565b935083602082028501612c7185613956565b8060005b85811015612cad5784840389528151612c8e8582612c0f565b9450612c99836139a2565b925060208a01995050600181019050612c75565b50829750879550505050505092915050565b6000612cca82613981565b612cd481856139cd565b9350612cdf83613966565b8060005b83811015612d10578151612cf78882612c23565b9750612d02836139af565b925050600181019050612ce3565b5085935050505092915050565b612d2681613aad565b82525050565b612d3581613ab9565b82525050565b6000612d468261398c565b612d5081856139de565b9350612d60818560208601613b1e565b612d6981613c59565b840191505092915050565b6000612d7f82613997565b612d8981856139ef565b9350612d99818560208601613b1e565b612da281613c59565b840191505092915050565b6000612db882613997565b612dc28185613a00565b9350612dd2818560208601613b1e565b612ddb81613c59565b840191505092915050565b6000612df3603483613a00565b91507f455243313135353a207472616e7366657220746f206e6f6e204552433131353560008301527f526563656976657220696d706c656d656e7465720000000000000000000000006020830152604082019050919050565b6000612e59602883613a00565b91507f455243313135353a204552433131353552656365697665722072656a6563746560008301527f6420746f6b656e730000000000000000000000000000000000000000000000006020830152604082019050919050565b6000612ebf602b83613a00565b91507f455243313135353a2062616c616e636520717565727920666f7220746865207a60008301527f65726f20616464726573730000000000000000000000000000000000000000006020830152604082019050919050565b6000612f25602483613a00565b91507f455243313135353a206275726e20616d6f756e7420657863656564732062616c60008301527f616e6365000000000000000000000000000000000000000000000000000000006020830152604082019050919050565b6000612f8b602983613a00565b91507f455243313135353a2063616c6c6572206973206e6f74206f776e6572206e6f7260008301527f20617070726f76656400000000000000000000000000000000000000000000006020830152604082019050919050565b6000612ff1602283613a00565b91507f6e6674206f6e6c7920676f7665726e616e63652063616e6e2063616c6c20746860008301527f69730000000000000000000000000000000000000000000000000000000000006020830152604082019050919050565b6000613057602583613a00565b91507f455243313135353a207472616e7366657220746f20746865207a65726f20616460008301527f64726573730000000000000000000000000000000000000000000000000000006020830152604082019050919050565b60006130bd603283613a00565b91507f455243313135353a207472616e736665722063616c6c6572206973206e6f742060008301527f6f776e6572206e6f7220617070726f76656400000000000000000000000000006020830152604082019050919050565b6000613123602383613a00565b91507f455243313135353a206275726e2066726f6d20746865207a65726f206164647260008301527f65737300000000000000000000000000000000000000000000000000000000006020830152604082019050919050565b6000613189602a83613a00565b91507f455243313135353a20696e73756666696369656e742062616c616e636520666f60008301527f72207472616e73666572000000000000000000000000000000000000000000006020830152604082019050919050565b60006131ef602483613a00565b91507f6e6674206f6e6c792069626f782065786368616e67652063616e2063616c6c2060008301527f74686973000000000000000000000000000000000000000000000000000000006020830152604082019050919050565b6000613255602983613a00565b91507f455243313135353a2073657474696e6720617070726f76616c2073746174757360008301527f20666f722073656c6600000000000000000000000000000000000000000000006020830152604082019050919050565b60006132bb602983613a00565b91507f455243313135353a206163636f756e747320616e6420696473206c656e67746860008301527f206d69736d6174636800000000000000000000000000000000000000000000006020830152604082019050919050565b6000613321602883613a00565b91507f455243313135353a2069647320616e6420616d6f756e7473206c656e6774682060008301527f6d69736d617463680000000000000000000000000000000000000000000000006020830152604082019050919050565b6000613387602183613a00565b91507f455243313135353a206d696e7420746f20746865207a65726f2061646472657360008301527f73000000000000000000000000000000000000000000000000000000000000006020830152604082019050919050565b6133e981613b05565b82525050565b6133f881613b05565b82525050565b60006020820190506134136000830184612c3b565b92915050565b600060a08201905061342e6000830188612c3b565b61343b6020830187612c3b565b818103604083015261344d8186612cbf565b905081810360608301526134618185612cbf565b905081810360808301526134758184612d3b565b90509695505050505050565b600060a0820190506134966000830188612c3b565b6134a36020830187612c3b565b6134b060408301866133ef565b6134bd60608301856133ef565b81810360808301526134cf8184612d3b565b90509695505050505050565b600060208201905081810360008301526134f58184612cbf565b905092915050565b600060808201905081810360008301526135178187612cbf565b9050818103602083015261352b8186612c4a565b9050818103604083015261353f8185612cbf565b905061354e60608301846133ef565b95945050505050565b600060408201905081810360008301526135718185612cbf565b905081810360208301526135858184612cbf565b90509392505050565b60006020820190506135a36000830184612d1d565b92915050565b60006020820190506135be6000830184612d2c565b92915050565b600060208201905081810360008301526135de8184612dad565b905092915050565b600060208201905081810360008301526135ff81612de6565b9050919050565b6000602082019050818103600083015261361f81612e4c565b9050919050565b6000602082019050818103600083015261363f81612eb2565b9050919050565b6000602082019050818103600083015261365f81612f18565b9050919050565b6000602082019050818103600083015261367f81612f7e565b9050919050565b6000602082019050818103600083015261369f81612fe4565b9050919050565b600060208201905081810360008301526136bf8161304a565b9050919050565b600060208201905081810360008301526136df816130b0565b9050919050565b600060208201905081810360008301526136ff81613116565b9050919050565b6000602082019050818103600083015261371f8161317c565b9050919050565b6000602082019050818103600083015261373f816131e2565b9050919050565b6000602082019050818103600083015261375f81613248565b9050919050565b6000602082019050818103600083015261377f816132ae565b9050919050565b6000602082019050818103600083015261379f81613314565b9050919050565b600060208201905081810360008301526137bf8161337a565b9050919050565b60006020820190506137db60008301846133ef565b92915050565b60006060820190506137f660008301866133ef565b6138036020830185612c3b565b61381060408301846133ef565b949350505050565b600060408201905061382d60008301856133ef565b61383a60208301846133ef565b9392505050565b6000604051905081810181811067ffffffffffffffff8211171561386857613867613c2a565b5b8060405250919050565b600067ffffffffffffffff82111561388d5761388c613c2a565b5b602082029050602081019050919050565b600067ffffffffffffffff8211156138b9576138b8613c2a565b5b602082029050602081019050919050565b600067ffffffffffffffff8211156138e5576138e4613c2a565b5b602082029050602081019050919050565b600067ffffffffffffffff82111561391157613910613c2a565b5b601f19601f8301169050602081019050919050565b600067ffffffffffffffff82111561394157613940613c2a565b5b601f19601f8301169050602081019050919050565b6000819050602082019050919050565b6000819050602082019050919050565b600081519050919050565b600081519050919050565b600081519050919050565b600081519050919050565b6000602082019050919050565b6000602082019050919050565b600082825260208201905092915050565b600082825260208201905092915050565b600082825260208201905092915050565b600082825260208201905092915050565b600082825260208201905092915050565b6000613a1c82613b05565b9150613a2783613b05565b9250827fffffffffffffffffffffffffffffffffffffffffffffffffffffffffffffffff03821115613a5c57613a5b613bcc565b5b828201905092915050565b6000613a7282613b05565b9150613a7d83613b05565b925082821015613a9057613a8f613bcc565b5b828203905092915050565b6000613aa682613ae5565b9050919050565b60008115159050919050565b60007fffffffff0000000000000000000000000000000000000000000000000000000082169050919050565b600073ffffffffffffffffffffffffffffffffffffffff82169050919050565b6000819050919050565b82818337600083830152505050565b60005b83811015613b3c578082015181840152602081019050613b21565b83811115613b4b576000848401525b50505050565b60006002820490506001821680613b6957607f821691505b60208210811415613b7d57613b7c613bfb565b5b50919050565b6000613b8e82613b05565b91507fffffffffffffffffffffffffffffffffffffffffffffffffffffffffffffffff821415613bc157613bc0613bcc565b5b600182019050919050565b7f4e487b7100000000000000000000000000000000000000000000000000000000600052601160045260246000fd5b7f4e487b7100000000000000000000000000000000000000000000000000000000600052602260045260246000fd5b7f4e487b7100000000000000000000000000000000000000000000000000000000600052604160045260246000fd5b6000601f19601f8301169050919050565b60008160e01c9050919050565b600060443d1015613c8757613d2a565b60046000803e613c98600051613c6a565b6308c379a08114613ca95750613d2a565b60405160043d036004823e80513d602482011167ffffffffffffffff82111715613cd557505050613d2a565b808201805167ffffffffffffffff811115613cf4575050505050613d2a565b8060208301013d8501811115613d0f57505050505050613d2a565b613d1882613c59565b60208401016040528296505050505050505b90565b613d3681613a9b565b8114613d4157600080fd5b50565b613d4d81613aad565b8114613d5857600080fd5b50565b613d6481613ab9565b8114613d6f57600080fd5b50565b613d7b81613b05565b8114613d8657600080fd5b5056fea2646970667358221220dea1237535e1efce4961ae78809673a11baebcb44d4fd5661d96c02bd0277ab464736f6c63430008000033687474703a2f2f6c6f63616c686f73743a32383038302f652f7b69647d2e6a736f6e",
  "immutableReferences": {},
  "source": "// SPDX-License-Identifier: SimPL-2.0\n\npragma solidity >=0.8.0;\n\nimport \"../node_modules/openzeppelin-solidity/contracts/token/ERC1155/ERC1155.sol\";\nimport \"../node_modules/openzeppelin-solidity/contracts/token/ERC1155/IERC1155Receiver.sol\"; \ncontract MPNFT is ERC1155, IERC1155Receiver{\n    address private _governance;\n    address private _ibox_exchange;\n    uint256 private _index;\n\n    mapping(uint256=>string) private _uris;\n\n\n    struct UserNftInfo{\n        mapping(uint256=> int256) _nfts;\n        uint256[] _nft_ids;\n    }\n    mapping(address=>UserNftInfo) private _user_nfts;\n\n    event AddTokensEvent(\n        uint256 []assetId,\n        string []uris,\n        uint256[] ids,\n        uint256 requestId\n    );\n\n\n    event DeleteNFTEvent(\n        uint256 requestId,\n        address user,\n        uint256 assetId\n    );\n\n    function addUserNftInfo(address user, uint256 assetId) internal{\n        if (_user_nfts[user]._nfts[assetId] == 0){\n            _user_nfts[user]._nfts[assetId] = 1;\n            _user_nfts[user]._nft_ids.push(assetId);\n        }\n\n    }\n\n\n    modifier onlyGovernance(){\n        require (msg.sender == _governance, \"nft only governance cann call this\");\n\n        _;\n    }\n\n    \n\n    constructor (address governance_, address ibox_exchange) public ERC1155(\"http://localhost:28080/e/{id}.json\"){\n        _governance = governance_;\n        _ibox_exchange = ibox_exchange;\n        _index = 10000;\n    }\n\n    function setIboxExchange(address ibox_exchange) external onlyGovernance{\n        _ibox_exchange = ibox_exchange;\n    }\n\n    function getIboxExchange () public view returns(address){\n        return _ibox_exchange;\n    }\n\n\n    function createTokenForIboxExchange ( uint256 amount, string memory uri) public returns (uint256){\n        require (msg.sender == _ibox_exchange, \"nft only ibox exchange can call this\");\n\n        _index ++;\n\n        _mint(_governance, _index, amount, \"\");\n        _uris[_index] = uri;\n        addUserNftInfo(_governance, _index);\n        return _index;\n    }\n\n    \n\n    function burnToken (uint256 requestId, address user, uint256 assetId, uint amount) external onlyGovernance{\n        // emit DeleteNFTEvent(requestId, user, assetId);\n        _burn(user, assetId, amount);\n        emit DeleteNFTEvent(requestId, user, assetId);\n    }\n\n    function addTokens ( uint256 [] memory copies, uint256 []memory souceIds, string [] memory uri_, uint256 requestId_, address user) external onlyGovernance {\n        uint l = copies.length;\n\n        uint256 [] memory ids_ = new uint256[](l);\n        for (uint i = 0; i < l; i++){\n            _index ++;\n            ids_[i] = _index;\n            _mint(user, _index, copies[i], \"\");\n            _uris[_index] = uri_[i];\n            addUserNftInfo(user, _index);\n        }\n\n        emit AddTokensEvent (ids_, uri_, souceIds, requestId_);\n    }\n\n    function uri(uint256 tokenId_) public view virtual override returns (string memory) {\n        return _uris[tokenId_];\n    }\n\n    function getTokenCount () public view returns (uint256){\n        return _index;\n    }\n\n    struct UserAssetInfo{\n        uint256 assetId;\n        uint256 amount;\n    }\n\n    function getUserAssetIds (address user) public view returns (uint256 [] memory){\n\n        return _user_nfts[user]._nft_ids;\n    }\n\n    function safeTransferFrom(\n        address from,\n        address to,\n        uint256 id,\n        uint256 amount,\n        bytes memory data\n    )\n        public\n        virtual\n        override\n    {\n        super.safeTransferFrom(from, to, id, amount, data);\n        addUserNftInfo(to, id);\n    }\n\n    function safeBatchTransferFrom(\n        address from,\n        address to,\n        uint256[] memory ids,\n        uint256[] memory amounts,\n        bytes memory data\n    )\n        public\n        virtual\n        override\n    {\n        super.safeBatchTransferFrom(from, to, ids, amounts, data);\n\n        uint l = ids.length;\n\n        for (uint i = 0; i < l; i++){\n            addUserNftInfo(to, ids[i]);\n        }\n        \n    }\n\n    function onERC1155Received(address operator, address from, uint256 id, uint256 value, bytes calldata data)\n     external virtual override returns(bytes4){\n        return bytes4(keccak256(\"onERC1155Received(address,address,uint256,uint256,bytes)\"));\n    }\n\n    function onERC1155BatchReceived(\n        address operator,\n        address from,\n        uint256[] calldata ids,\n        uint256[] calldata values,\n        bytes calldata data\n    )\n        external  virtual override\n        returns(bytes4){\n            return bytes4(keccak256(\"onERC1155BatchReceived(address,address,uint256[],uint256[],bytes)\"));\n    }\n}",
  "sourcePath": "/Users/zeng/Documents/work/src/xworld/xworld.contract/contracts/MPNFT.sol",
  "compiler": {
    "name": "solc",
    "version": "0.8.0+commit.c7dfd78e.Emscripten.clang"
  },
  "schemaVersion": "3.4.3",
  "updatedAt": "2021-09-16T07:38:35.616Z",
  "networkType": "ethereum",
  "devdoc": {
    "kind": "dev",
    "methods": {
      "balanceOf(address,uint256)": {
        "details": "See {IERC1155-balanceOf}. Requirements: - `account` cannot be the zero address."
      },
      "balanceOfBatch(address[],uint256[])": {
        "details": "See {IERC1155-balanceOfBatch}. Requirements: - `accounts` and `ids` must have the same length."
      },
      "isApprovedForAll(address,address)": {
        "details": "See {IERC1155-isApprovedForAll}."
      },
      "onERC1155BatchReceived(address,address,uint256[],uint256[],bytes)": {
        "details": "Handles the receipt of a multiple ERC1155 token types. This function is called at the end of a `safeBatchTransferFrom` after the balances have been updated. To accept the transfer(s), this must return `bytes4(keccak256(\"onERC1155BatchReceived(address,address,uint256[],uint256[],bytes)\"))` (i.e. 0xbc197c81, or its own function selector).",
        "params": {
          "data": "Additional data with no specified format",
          "from": "The address which previously owned the token",
          "ids": "An array containing ids of each token being transferred (order and length must match values array)",
          "operator": "The address which initiated the batch transfer (i.e. msg.sender)",
          "values": "An array containing amounts of each token being transferred (order and length must match ids array)"
        },
        "returns": {
          "_0": "`bytes4(keccak256(\"onERC1155BatchReceived(address,address,uint256[],uint256[],bytes)\"))` if transfer is allowed"
        }
      },
      "onERC1155Received(address,address,uint256,uint256,bytes)": {
        "details": "Handles the receipt of a single ERC1155 token type. This function is called at the end of a `safeTransferFrom` after the balance has been updated. To accept the transfer, this must return `bytes4(keccak256(\"onERC1155Received(address,address,uint256,uint256,bytes)\"))` (i.e. 0xf23a6e61, or its own function selector).",
        "params": {
          "data": "Additional data with no specified format",
          "from": "The address which previously owned the token",
          "id": "The ID of the token being transferred",
          "operator": "The address which initiated the transfer (i.e. msg.sender)",
          "value": "The amount of tokens being transferred"
        },
        "returns": {
          "_0": "`bytes4(keccak256(\"onERC1155Received(address,address,uint256,uint256,bytes)\"))` if transfer is allowed"
        }
      },
      "safeBatchTransferFrom(address,address,uint256[],uint256[],bytes)": {
        "details": "See {IERC1155-safeBatchTransferFrom}."
      },
      "safeTransferFrom(address,address,uint256,uint256,bytes)": {
        "details": "See {IERC1155-safeTransferFrom}."
      },
      "setApprovalForAll(address,bool)": {
        "details": "See {IERC1155-setApprovalForAll}."
      },
      "supportsInterface(bytes4)": {
        "details": "See {IERC165-supportsInterface}."
      }
    },
    "version": 1
  },
  "userdoc": {
    "kind": "user",
    "methods": {},
    "version": 1
  }
}