{
  "contractName": "MPShop",
  "abi": [
    {
      "inputs": [
        {
          "internalType": "address",
          "name": "operator",
          "type": "address"
        },
        {
          "internalType": "address",
          "name": "usdt",
          "type": "address"
        },
        {
          "internalType": "address",
          "name": "receiver",
          "type": "address"
        }
      ],
      "stateMutability": "nonpayable",
      "type": "constructor"
    },
    {
      "anonymous": false,
      "inputs": [
        {
          "indexed": false,
          "internalType": "uint256",
          "name": "requestId",
          "type": "uint256"
        },
        {
          "indexed": false,
          "internalType": "address",
          "name": "buyer",
          "type": "address"
        },
        {
          "indexed": false,
          "internalType": "uint256",
          "name": "amount",
          "type": "uint256"
        },
        {
          "indexed": false,
          "internalType": "uint256",
          "name": "price",
          "type": "uint256"
        }
      ],
      "name": "OrderEvent",
      "type": "event"
    },
    {
      "inputs": [],
      "name": "_operator",
      "outputs": [
        {
          "internalType": "address",
          "name": "",
          "type": "address"
        }
      ],
      "stateMutability": "view",
      "type": "function",
      "constant": true
    },
    {
      "inputs": [],
      "name": "_usdt",
      "outputs": [
        {
          "internalType": "contract IIERC20",
          "name": "",
          "type": "address"
        }
      ],
      "stateMutability": "view",
      "type": "function",
      "constant": true
    },
    {
      "inputs": [
        {
          "internalType": "address",
          "name": "user",
          "type": "address"
        }
      ],
      "name": "balanceOfUsdt",
      "outputs": [
        {
          "internalType": "uint256",
          "name": "",
          "type": "uint256"
        }
      ],
      "stateMutability": "view",
      "type": "function",
      "constant": true
    },
    {
      "inputs": [],
      "name": "getReceiver",
      "outputs": [
        {
          "internalType": "address",
          "name": "",
          "type": "address"
        }
      ],
      "stateMutability": "view",
      "type": "function",
      "constant": true
    },
    {
      "inputs": [
        {
          "internalType": "uint256",
          "name": "requestId",
          "type": "uint256"
        },
        {
          "internalType": "address",
          "name": "user",
          "type": "address"
        },
        {
          "internalType": "uint256",
          "name": "amount",
          "type": "uint256"
        },
        {
          "internalType": "uint256",
          "name": "price",
          "type": "uint256"
        }
      ],
      "name": "createBuyOrder",
      "outputs": [],
      "stateMutability": "nonpayable",
      "type": "function"
    },
    {
      "inputs": [
        {
          "internalType": "address",
          "name": "user",
          "type": "address"
        },
        {
          "internalType": "uint256",
          "name": "amount",
          "type": "uint256"
        }
      ],
      "name": "approveUsdt",
      "outputs": [
        {
          "internalType": "bool",
          "name": "",
          "type": "bool"
        }
      ],
      "stateMutability": "nonpayable",
      "type": "function"
    },
    {
      "inputs": [
        {
          "internalType": "uint256",
          "name": "requestId",
          "type": "uint256"
        },
        {
          "internalType": "uint256",
          "name": "price",
          "type": "uint256"
        }
      ],
      "name": "buyToken",
      "outputs": [],
      "stateMutability": "nonpayable",
      "type": "function"
    },
    {
      "inputs": [
        {
          "internalType": "uint256",
          "name": "requestId",
          "type": "uint256"
        }
      ],
      "name": "getOrderStatus",
      "outputs": [
        {
          "internalType": "uint256",
          "name": "",
          "type": "uint256"
        }
      ],
      "stateMutability": "view",
      "type": "function",
      "constant": true
    }
  ],
  "bytecode": "0x608060405234801561001057600080fd5b50604051610e2d380380610e2d83398181016040528101906100329190610111565b82600160006101000a81548173ffffffffffffffffffffffffffffffffffffffff021916908373ffffffffffffffffffffffffffffffffffffffff16021790555080600260006101000a81548173ffffffffffffffffffffffffffffffffffffffff021916908373ffffffffffffffffffffffffffffffffffffffff160217905550816000806101000a81548173ffffffffffffffffffffffffffffffffffffffff021916908373ffffffffffffffffffffffffffffffffffffffff1602179055505050506101a9565b60008151905061010b81610192565b92915050565b60008060006060848603121561012657600080fd5b6000610134868287016100fc565b9350506020610145868287016100fc565b9250506040610156868287016100fc565b9150509250925092565b600061016b82610172565b9050919050565b600073ffffffffffffffffffffffffffffffffffffffff82169050919050565b61019b81610160565b81146101a657600080fd5b50565b610c75806101b86000396000f3fe608060405234801561001057600080fd5b50600436106100885760003560e01c806398aca9221161005b57806398aca92214610127578063be3601f814610145578063c4cbf80b14610163578063e61361051461017f57610088565b8063057466ea1461008d578063426c7677146100a957806345fa8aae146100d957806370b0a84314610109575b600080fd5b6100a760048036038101906100a291906108d4565b6101af565b005b6100c360048036038101906100be9190610791565b61045d565b6040516100d09190610b1d565b60405180910390f35b6100f360048036038101906100ee919061081f565b610510565b6040516101009190610b1d565b60405180910390f35b610111610530565b60405161011e9190610a0c565b60405180910390f35b61012f610556565b60405161013c9190610a0c565b60405180910390f35b61014d610580565b60405161015a9190610aa2565b60405180910390f35b61017d60048036038101906101789190610871565b6105a4565b005b610199600480360381019061019491906107ba565b610673565b6040516101a69190610a87565b60405180910390f35b6000600360008481526020019081526020016000206040518060a0016040529081600082015481526020016001820160009054906101000a900473ffffffffffffffffffffffffffffffffffffffff1673ffffffffffffffffffffffffffffffffffffffff1673ffffffffffffffffffffffffffffffffffffffff1681526020016002820154815260200160038201548152602001600482015481525050905080600001518314610295576040517f08c379a000000000000000000000000000000000000000000000000000000000815260040161028c90610afd565b60405180910390fd5b806060015182146102db576040517f08c379a00000000000000000000000000000000000000000000000000000000081526004016102d290610abd565b60405180910390fd5b6001816080015114610322576040517f08c379a000000000000000000000000000000000000000000000000000000000815260040161031990610add565b60405180910390fd5b60008054906101000a900473ffffffffffffffffffffffffffffffffffffffff1673ffffffffffffffffffffffffffffffffffffffff166323b872dd33600260009054906101000a900473ffffffffffffffffffffffffffffffffffffffff16856040518463ffffffff1660e01b81526004016103a193929190610a27565b600060405180830381600087803b1580156103bb57600080fd5b505af11580156103cf573d6000803e3d6000fd5b5050505060026003600085815260200190815260200160002060040181905550600060036000858152602001908152602001600020600001819055507f2fc8ce98514e38842ea9a3618269c8549d1df6c7551826e72b152523198aad6b81600001518260200151836040015184606001516040516104509493929190610b38565b60405180910390a1505050565b60008060009054906101000a900473ffffffffffffffffffffffffffffffffffffffff1673ffffffffffffffffffffffffffffffffffffffff166370a08231836040518263ffffffff1660e01b81526004016104b99190610a0c565b60206040518083038186803b1580156104d157600080fd5b505afa1580156104e5573d6000803e3d6000fd5b505050506040513d601f19601f820116820180604052508101906105099190610848565b9050919050565b600060036000838152602001908152602001600020600401549050919050565b600160009054906101000a900473ffffffffffffffffffffffffffffffffffffffff1681565b6000600260009054906101000a900473ffffffffffffffffffffffffffffffffffffffff16905090565b60008054906101000a900473ffffffffffffffffffffffffffffffffffffffff1681565b60006040518060a001604052808681526020018573ffffffffffffffffffffffffffffffffffffffff1681526020018481526020018381526020016001815250905080600360008781526020019081526020016000206000820151816000015560208201518160010160006101000a81548173ffffffffffffffffffffffffffffffffffffffff021916908373ffffffffffffffffffffffffffffffffffffffff1602179055506040820151816002015560608201518160030155608082015181600401559050505050505050565b60008060008054906101000a900473ffffffffffffffffffffffffffffffffffffffff1673ffffffffffffffffffffffffffffffffffffffff1663095ea7b385856040518363ffffffff1660e01b81526004016106d1929190610a5e565b602060405180830381600087803b1580156106eb57600080fd5b505af11580156106ff573d6000803e3d6000fd5b505050506040513d601f19601f8201168201806040525081019061072391906107f6565b90506000811561073257600190505b819250505092915050565b60008135905061074c81610bfa565b92915050565b60008151905061076181610c11565b92915050565b60008135905061077681610c28565b92915050565b60008151905061078b81610c28565b92915050565b6000602082840312156107a357600080fd5b60006107b18482850161073d565b91505092915050565b600080604083850312156107cd57600080fd5b60006107db8582860161073d565b92505060206107ec85828601610767565b9150509250929050565b60006020828403121561080857600080fd5b600061081684828501610752565b91505092915050565b60006020828403121561083157600080fd5b600061083f84828501610767565b91505092915050565b60006020828403121561085a57600080fd5b60006108688482850161077c565b91505092915050565b6000806000806080858703121561088757600080fd5b600061089587828801610767565b94505060206108a68782880161073d565b93505060406108b787828801610767565b92505060606108c887828801610767565b91505092959194509250565b600080604083850312156108e757600080fd5b60006108f585828601610767565b925050602061090685828601610767565b9150509250929050565b61091981610b8e565b82525050565b61092881610ba0565b82525050565b61093781610bd6565b82525050565b600061094a600b83610b7d565b91507f7072696365206572726f720000000000000000000000000000000000000000006000830152602082019050919050565b600061098a601083610b7d565b91507f6f726465722069732073756363657373000000000000000000000000000000006000830152602082019050919050565b60006109ca601083610b7d565b91507f72657175657374206964206572726f72000000000000000000000000000000006000830152602082019050919050565b610a0681610bcc565b82525050565b6000602082019050610a216000830184610910565b92915050565b6000606082019050610a3c6000830186610910565b610a496020830185610910565b610a5660408301846109fd565b949350505050565b6000604082019050610a736000830185610910565b610a8060208301846109fd565b9392505050565b6000602082019050610a9c600083018461091f565b92915050565b6000602082019050610ab7600083018461092e565b92915050565b60006020820190508181036000830152610ad68161093d565b9050919050565b60006020820190508181036000830152610af68161097d565b9050919050565b60006020820190508181036000830152610b16816109bd565b9050919050565b6000602082019050610b3260008301846109fd565b92915050565b6000608082019050610b4d60008301876109fd565b610b5a6020830186610910565b610b6760408301856109fd565b610b7460608301846109fd565b95945050505050565b600082825260208201905092915050565b6000610b9982610bac565b9050919050565b60008115159050919050565b600073ffffffffffffffffffffffffffffffffffffffff82169050919050565b6000819050919050565b6000610be182610be8565b9050919050565b6000610bf382610bac565b9050919050565b610c0381610b8e565b8114610c0e57600080fd5b50565b610c1a81610ba0565b8114610c2557600080fd5b50565b610c3181610bcc565b8114610c3c57600080fd5b5056fea26469706673582212203679992f124365da93e0d34106310b0c5fdbd36bcabb63f8480926bdfb01b6ca64736f6c63430008000033",
  "immutableReferences": {},
  "source": "\n// SPDX-License-Identifier: SimPL-2.0\n\npragma solidity >=0.8.0;\n\nimport \"./MPNFT.sol\";\n\ninterface IIERC20{\n  function transfer(address recipient, uint256 amount) external;\n  function transferFrom(address sender, address receipient, uint256 amount) external;\n  function balanceOf(address account) external view returns (uint256);\n  function approve(address spender, uint256 amount) external returns (bool);\n  function allowance(address owner, address spender) external view returns (uint256);\n}\n\ncontract MPShop {\n\n  IIERC20 public _usdt;\n  address public _operator;\n  address private _receiver;\n\n  struct OrderInfo{\n    uint256 requestId;\n    address buyer;\n    uint256 amount;\n    uint256 price;\n    uint status;  //1,2,3\n  }\n\n  event OrderEvent(\n    uint256 requestId,\n    address buyer,\n    uint256 amount,\n    uint256 price\n  );\n\n\n  \n\n  mapping(uint256 => OrderInfo) _orders;\n  \n\n  constructor(address operator, address usdt, address receiver) public {\n    _operator = operator;\n    _receiver = receiver;\n    _usdt = IIERC20(usdt);\n  }\n\n  function balanceOfUsdt (address user) public view returns (uint256){\n    return _usdt.balanceOf(user);\n  }\n\n  \n\n  modifier onlyOperator(){\n    require (msg.sender == _operator, \"shop only operator cann call this\");\n\n    _;\n  }\n\n  function getReceiver() public view returns(address){\n    return _receiver;\n  }\n\n  function createBuyOrder (uint256 requestId, address user, uint256 amount, uint256 price) public {\n    OrderInfo memory o = OrderInfo(requestId, user, amount,price,1);\n\n    _orders[requestId] = o;\n  }\n\n  // event Log (\n  //   string msg,\n  //   address from,\n  //   address to,\n  //   uint256 p1,\n  //   uint256 p2,\n  //   uint256 allowance\n  // );\n\n  function approveUsdt (address user, uint256 amount) public returns (bool){\n\n    bool result = _usdt.approve(user, amount);\n\n    uint f = 0;\n\n    if (result){\n      f = 1;\n    }\n\n    // emit Log(\"buy\", msg.sender,user, f, amount, _usdt.allowance(address(this), _operator));\n    return result;\n  }\n\n  function buyToken (uint256 requestId, uint price)  public  {\n    OrderInfo memory o = _orders[requestId];\n\n    require (requestId == o.requestId, \"request id error\");\n    require (price == o.price, \"price error\");\n    require (o.status == 1, \"order is success\");\n\n    // emit Log(\"buy2\", msg.sender,_operator, o.price, price, _usdt.allowance(msg.sender, address(this)));\n\n\n    _usdt.transferFrom(msg.sender, _receiver, price);\n    \n    _orders[requestId].status = 2;\n    _orders[requestId].requestId = 0;\n    emit OrderEvent(o.requestId, o.buyer, o.amount, o.price);\n  }\n\n  function getOrderStatus (uint256 requestId) public view returns (uint256){\n    return _orders[requestId].status;\n  }\n  \n}",
  "sourcePath": "/Users/zeng/Documents/work/src/xworld/xworld.contract/contracts/MPShop.sol",
  "compiler": {
    "name": "solc",
    "version": "0.8.0+commit.c7dfd78e.Emscripten.clang"
  },
  "schemaVersion": "3.4.3",
  "updatedAt": "2021-09-16T07:38:35.582Z",
  "networkType": "ethereum",
  "devdoc": {
    "kind": "dev",
    "methods": {},
    "version": 1
  },
  "userdoc": {
    "kind": "user",
    "methods": {},
    "version": 1
  }
}